:030000000207F202
:0C07F20078FFE4F6D8FD75815402083948
:100ABE00C101C100011D00011E00011F000219002D
:070ACE0000011B00011C00E8
:100C4B00D2AF7F017E00120A53121098121042127B
:100C5B0011C712115712112C3001FDC201120B27B3
:100C6B007F011209757F011209E7120D3F1209026C
:100C7B00120E82300013C200121116120B27121023
:100C8B00E7E51F7004FF1209753001E1C201E51F92
:080C9B0070DBFF1209E780D5B0
:0209E7008F3649
:1009E9007B007A007937120EB912112CE538AE372F
:1009F9007804CEA2E713CE13D8F8F5388E37B51A96
:100A090009E519B53704E536603FAE37AF387C00E4
:100A19007D0A120096EF2430782AF2AE37AF387C7F
:100A2900007D0A120096ED2430782BF2087427F223
:100A3900087443F2E408F27BFE7A00792AFD7F0C00
:090A4900120F3B85371985381A9C
:010A52002281
:100A5300E4FCFDFB7A10790EF8120116E47BE87AC8
:100A630003F9F8120D838F368E358D348C33C3E43E
:100A73009536F536E49535F53574019534F534E45A
:100A83009533F533E5362421F536E43535F535E48C
:100A93003534F534E43533F533AF36AE35AD34FCA8
:100AA30078081201658F1D85361E5389F04389012D
:0A0AB300851D8C851E8AD2A9D28C05
:010ABD002216
:03000B00020BEFF6
:100BEF00C0E0C0F0C083C082C0D075D000C000C0CC
:0D0BFF0001C002C003C004C005C006C0074D
:100C0C00851D8C851E8A051CE51CC394C840127575
:100C1C001C00D200051BE51B940A4005751B00D275
:040C2C000112042885
:100C3000D007D006D005D004D003D002D001D00018
:0B0C4000D0D0D082D083D0F0D0E032C2
:0E11E800D294858054A2909202A2919203228A
:0E11F600A2029290A2039291855480C294228C
:101192007580FFC290D291D295AF80C295EF20E7C1
:0111A200F656
:0111A3002229
:10001600AE071211E8121192C290C2918E80D2954B
:05002600C2950211F675
:10114200AE071211E8121192D290C2918E80D295FE
:05115200C2950211F638
:05000E007F0102001655
:051217007F0F0200162C
:05121C007F0C0200162A
:1011A400ED7004AC078004EF2440FCEC4480FF02A3
:0211B400001623
:100F3B008B398A3A893B1211A4AB39AA3AA93B12D5
:100F4B00002E6013053BE53B7002053A14F91200C5
:080F5B002EFF12114280E22278
:080003001211A4AF0302114227
:101157007F381200167F0C1200167F061200167FCA
:04116700010200166B
:10106000C0F9A4B0999282F880908883C6A1868E38
:0C1070007F3F1F0F87C3E1F0F8FCFEFF7C
:080AD500C1060108000109003F
:101098007580FFC294E4F5C875CBFD75CA9A85CBF7
:0B10A800CD85CACCD2ADD2BDD2CA2289
:10111600E50890107093F518E508C3940B50030585
:051126000822E4F508B9
:01112B0022A1
:10116B00ED90106093FE74122FF8A606EB6004E668
:04117B00547FF62285
:060FD9008B368A378938CF
:100FDF00E4FFAB360538E538AA377002053714F948
:0E0FEF0012002EFE740A2FF8A6060FBF08E4AB
:010FFD0022D1
:03002B00020E08BA
:090E0800C0E0C0D075D000C000AC
:100E1100C2CF2094217580FFE59054F04509F590EB
:100E2100740A2509F8E6F580E509C3940E50040516
:0F0E3100098003750900300604B2968002D2963C
:070E4000D000D0D0D0E03259
:1011D800313233263435362537383928301B0D2738
:100ADD00901001010101010101010101010101015B
:100AED00010190000101010101010101010101015B
:100AFD00010101010122001023FFFFFFFFFFFFFF96
:090B0D00FFFFFFFFFFFFFFFFFFE8
:10090200E4F533E4F534E53325E025E0241025341D
:10091200F8E2FFE53325E025E024002534F8E2FE85
:100922006F603DEE6020E53325E025E024D8F582B6
:10093200E43411F583E5822534F582E43583F583C9
:10094200E493FF120E47E53325E025E02410253419
:10095200F8E2FFE53325E025E024002534F8EFF244
:100962000534E534C39404409D0533E533C3940450
:020972004091B2
:010974002260
:10042800E52225E025E02423F8E625E0FFA2A4E460
:10043800334FFFE52225E025E02423F8A607E5222F
:1004480025E025E02424F8E625E0FFA2A5E4334FC3
:10045800FFE52225E025E02424F8A607E52225E08B
:1004680025E02425F8E625E0FFA2A6E4334FFFE5C2
:100478002225E025E02425F8A607E52225E025E049
:100488002426F8E625E0FFA2A7E4334FFFE522255E
:10049800E025E02426F8A607E4FFE52225E025E08C
:1004A80024232FF8E6540FFE700EE52225E025E000
:1004B80024102FF8E4F28010BE0F0DE52225E02568
:1004C800E024102FF87401F20FBF04CE0522532246
:1004D80003E52214600F14601114601324037013D1
:1004E800D2A0C2A322D2A3C2A222D2A2C2A122D245
:0304F800A1C2A0FE
:0104FB0022DE
:08120F00202204051401000770
:1010B3007E01EE60135F6004D2B48002C2B4D2B585
:0A10C300C2B5EE25E0FE80EAD2B4CB
:0110CD002200
:1010FF00E4FF7E01EE600F30B4024207D2B5C2B5F5
:06110F00EE25E0FE80EE7B
:0111150022B7
:10117F00D297EF25E04480FF1210B3AF051210B3E2
:03118F00C29722E2
:1011B600D297EF25E04481FF1210B31210FFC297B9
:0111C6002206
:060F63008B3E8A3F89402D
:100F6900D2977FBE1210B3E4FDAB3EAA3FA9408DD4
:100F790082758300120047FF1210B30DBD08EAC243
:010F890097D0
:010F8A002244
:060F8B008B418A428943FC
:100F9100D2977FBF1210B3E4FD1210FFAB41AA42FA
:100FA100A9438D82758300EF1200740DBD08EAC25A
:010FB10097A8
:010FB200221C
:060CA3008B368A37893808
:100CA9007B007A007939120F8BE4253FFFE4342069
:100CB900AB36AA37A9388FF01200F7AB36AA37A995
:100CC90038900002E53D120074900003E53C1200E3
:100CD90074900004E53B120074900005E53A120097
:100CE90074900006E539120074900007E53E020091
:010CF9007486
:100DC700E4F53D1200CCF53C900007120047F53BD7
:100DD700900002120047F53A900003120047F539D8
:100DE700900004120047F538900005120047F537C8
:100DF700900006120047F5367B007A007936020F1D
:010E07006387
:10104200C297C2B5E4FF1211B6EF30E710E4FD7F9C
:0D1052000712117F7BFF7A12790F120DC774
:01105F00226E
:0B1204000000000000000000DFF622E8
:10107C00C2AFC2B27F32121204D2B27F0612120475
:0B108C00A2B2920530B2FDD2AFA20567
:011097002236
:020FB300AE0787
:100FB500C2AF7D01ED601AC2B200005E7004C2B21C
:100FC5008002D2B27F06121204D2B2ED25E0FD8076
:030FD500E3D2AFB5
:010FD80022F6
:100EE700C2AF7D01ED601EC2B20000D2B200002089
:100EF700B205F452068003ED42067F06121204ED96
:090F070025E0FD80DFD2AFAF064A
:010F100022BE
:10112C0012107C920420040A7FCC120FB37F44125D
:05113C000FB3A204B393
:01114100228B
:100EB90012107C92042004227FCC120FB37FBE1241
:100EC9000FB3120EE7AC07120EE7EFFEAD047C007C
:0D0ED900E42DFFEC3E8FF01200F7A204B3F1
:010EE60022E9
:100F110045004600471B440040254327070015288C
:100F210009261630191B0D0D0C3118325E330834A9
:0A0F31001C355A36423752384A394F
:020B1600C10715
:100E8200300733C207E4F533E53325E02411F58258
:100E9200E4340FF583E493B55213E53325E02412CD
:100EA200F582E4340FF583E493FF020E470533E540
:060EB20033C3941540D289
:010EB8002217
:1011C700D2B353890F438910C28EC2ABD28AD2AA37
:0111D70022F5
:100FFE00E4F58DF58BD28E30B307E58DC39440406A
:10100E00F6C28EAF8DEFFEAD8B7C00E42DFFEC3E75
:02101E00FE22B0
:10102000E4F58DF58BD28E20B307E58DC394404057
:10103000F6C28EAF8DEFFEAD8B7C00E42DFFEC3E53
:02104000FE228E
:030013000205CF14
:1005CF00C0E0C0D075D000C000C001C002C003C0E1
:0705DF0004C005C006C007BF
:1005E600121020C3EF9499EE941E4009D3EF943372
:1005F600EE94224005C28B020682120FFEC3EF94D0
:1006060066EE940E4009D3EF9400EE94124004C2B5
:100616008B8069E4FBE4FA121020C3EF9439EE9460
:10062600014009D3EF94CEEE94024004C28B804C75
:10063600120FFED3EF9439EE9401400EEF94CEEEF6
:1006460094025006E9C313F9801ED3EF9441EE9449
:10065600054011EF94D7EE94065009E9C313F94308
:1006660001808004C28B80140ABA08AB74502BF840
:0C067600A6010BEB6404709DD207C28B40
:10068200D007D006D005D004D003D002D001D000CC
:05069200D0D0D0E032E1
:100B8D00416C61726D206174200053657420446165
:100B9D0074652054696D650053657420416C6172F4
:100BAD006D00FF9900000081C3E7EFE7E3E7E7E79A
:100BBD00E7C3C3819D87C3F9C181C3819DC7C79D0C
:100BCD0081C3CFC7C3C9C981CFCF81C1F9C3879DA8
:100BDD0081C3C381F9C3819981C3FF99000000814D
:020BED00C3E75C
:0E0B1800C108014514014601014700014400D7
:100B27007B007A007948120CA3E54CC4540FFDE40E
:100B3700FB7F0512116BE54C540FFD7B017F0412FF
:100B4700116BE54DC4540FFDE4FB7F0312116BE5F8
:100B57004D540FFD7B017F0212116BE54EC4540FFC
:100B6700FDE4FB7F0112116BE54E540FFDE4FBFF23
:100B770012116BE54F75F008A424AFF9740B35F02B
:060B8700FA7BFF020FD90A
:10097500E544B54B03EF6069E548C4540F2430786E
:100985002AF2E548540F243008F2E548C4F854F03B
:10099500C8E549C4540F48540F2430782CF2E54972
:1009A500540F243008F208742DF2E54AC4540F247C
:1009B5003008F2E54A540F243008F208742DF2E5A8
:1009C5004BC4540F243008F2E54B540F243008F281
:1009D500E408F27BFE7A00792AFDFF120F3B854B76
:0109E50044CD
:0109E60022EE
:100D3F007BFF7A0B798D7D01E4FF120F3BE545C4F4
:100D4F00540F2430782AF2E545540F243008F20866
:100D5F00743AF2E546C4540F243008F2E546540FB6
:100D6F00243008F2E408F27BFE7A00792A7D017FB5
:040D7F0009020F3B1B
:1010E700E54CB5450EE54DB54609200803B2062285
:0810F700C20622C208C2062253
:10074D007820E2FC08E2FDECC4F854F0C8EDC45486
:10075D000F48540F2430782AF2ED540F243008F24C
:10076D0008742DF27822E2FFC4540F2430782DF254
:10077D00EF540F243008F208742DF27823E2FFC4F1
:10078D00540F24307830F2EF540F243008F20874EF
:10079D002DF27827E2540F24307833F2087420F2CA
:1007AD007824E2FFC4540F24307835F2EF540F242F
:1007BD003008F208743AF27825E2FFC4540F243061
:1007CD007838F2EF540F243008F2E408F27BFF7A08
:1007DD000B7997FDFF120F3B7BFE7A00792A7D0185
:0507ED00E4FF020F3BD8
:100CFA007828E2FFC4540F2430782AF2EF540F24E4
:100D0A003008F208743AF27829E2FFC4540F24300A
:100D1A00782DF2EF540F243008F2E408F27BFF7AC0
:100D2A000B79A5FDFF120F3B7BFE7A00792A7D0124
:050D3A00E4FF020F3B85
:1010CE00E4F51F12121C12000E120B277F011209DB
:0910DE00757F011209E7020D3FC4
:10069700E51F64017079E547B40A00506A9006AB1C
:1006A700F82828730206C90206CB0206CD0206CF38
:1006B7000206D80206E10206EA0206F30206FC0277
:1006C7000705805D8064806B7547047D017F068028
:1006D700717547057D017F0780687547067D017F36
:1006E70009805F7547077D017F0B80567547087D39
:1006F700017F0C804D7547097D017F0E804475474A
:100707000A7D017F0F803BE4F5477D01FF8033E5DC
:100717001F64027030E547146010146016240270DD
:100727001B7547017D017F0180187547027D017F99
:1007370003800F7547037D017F048006E4F5477D3D
:0607470001FF1211A422C3
:1004FC00E51F64016003020598E547B40A00400358
:10050C0002058F900516F828287302053402053E63
:10051C0002054702055002055902056202056B02ED
:10052C00057402057D02058675470A7D017F0F0261
:10053C0005CBE4F5477D01FF0205CB7547017D0135
:10054C007F01807B7547027D017F038072754703B5
:10055C007D017F0480697547047D017F068060758D
:10056C0047057D017F0780577547067D017F098010
:10057C004E7547077D017F0B80457547087D017FD0
:10058C000C803C7547097D017F0E8033E51F6402AA
:10059C007030E5471460101460152402701A75470A
:1005AC00037D017F048018E4F5477D01FF80107501
:1005BC0047017D017F0180077547027D017F031292
:0305CC0011A42255
:02029B008F369C
:10029D00E53624D0F537D394094003020427E51F32
:1002AD00640160030203C7E547B40A00400302037B
:1002BD00B49002C5F82828730202E3020305020375
:1002CD001F02033502034502035A02036A02037A31
:1002DD0002038F02039FE53775F010A4FF7820E22B
:1002ED00FC08E2540FFDEC45F018F2ED4F08F2ABAF
:1002FD00367D01E4FF0203C27820E2FE08E254F0ED
:10030D00FFEE18F2EF453708F2AB367D017F0102A3
:10031D0003C2E537C454F0FF7822E2540F4FF2AB1D
:10032D00367D017F030203C27822E254F04537F295
:10033D00AB367D017F04807DE537C454F0FF782313
:10034D00E2540F4FF2AB367D017F0680687823E2D1
:10035D0054F04537F2AB367D017F0780587827E2A0
:10036D0054F04537F2AB367D017F098048E537C43F
:10037D0054F0FF7824E2540F4FF2AB367D017F0B22
:10038D0080337824E254F04537F2AB367D017F0C93
:10039D008023E537C454F0FF7825E2540F4FF2ABBC
:1003AD00367D017F0E800E7825E254F04537F2AB95
:1003BD00367D017F0F120003805DE51F6402705AC8
:1003CD00E54714601C1460292402703AE537C454C3
:1003DD00F0FF7828E2540F4FF2AB367D01E4FF8039
:1003ED00337828E254F04537F2AB367D017F01803A
:1003FD0023E537C454F0FF7829E2540F4FF2AB36A2
:10040D007D017F03800E7829E254F04537F2AB363B
:0A041D007D017F0412000312069710
:0104270022B2
:10087E00E51F7033751F017820E548F208E549F24F
:10088E0008E54AF208E54BF208E54CF208E54DF2B0
:10089E0008E54EF208E54FF212000E12074D7547AD
:1008AE00FF120697021217E51FB40125751F02E409
:1008BE007826F27BFE7A007920120DC77828E5455E
:1008CE00F208E546F212000E120CFA7547FF020608
:1008DE0097E4F51F7828E2F54508E2F54612121C5A
:1008EE0012000E120B277F011209757F011209E704
:0408FE00120D3F2276
:100E47008F35E535C39430400AE535D394395003DF
:100E570002029BE535B425030204FCE535B42703FC
:100E6700020697E535B40D0302087EE535B41B0A83
:0B0E7700E51F7003D208221210CE22EB
:1007FE00020C4BE493A3F8E493A34003F68001F2BA
:10080E0008DFF48029E493A3F85407240CC8C333FB
:10081E00C4540F4420C8834004F456800146F6DFCA
:10082E00E4800B0102040810204080900ABEE47E92
:10083E00019360BCA3FF543F30E509541FFEE493BF
:10084E00A360010ECF54C025E060A840B8E493A386
:10085E00FAE493A3F8E493A3C8C582C8CAC583CAB1
:10086E00F0A3C8C582C8CAC583CADFE9DEE780BE69
:010B260000CE
:10002E00BB010689828A83E0225002E722BBFE02D0
:09003E00E32289828A83E4932203
:10004700BB010CE58229F582E5833AF583E022506E
:1000570006E92582F8E622BBFE06E92582F8E222B8
:0D006700E58229F582E5833AF583E49322D2
:10007400F8BB010DE58229F582E5833AF583E8F0C2
:10008400225006E92582C8F622BBFE05E92582C86E
:02009400F22256
:10009600C2D5EC30E709B2D5E4C39DFDE49CFCEE85
:1000A60030E715B2D5E4C39FFFE49EFE120178C384
:1000B600E49DFDE49CFC800312017830D507C3E47F
:0600C6009FFFE49EFE22F4
:1000CC00BB010A89828A83E0F5F0A3E022500687FF
:1000DC00F009E71922BBFE07E3F5F009E3192289C1
:0B00EC00828A83E493F5F074019322F4
:1000F700BB010A89828A83F0E5F0A3F0225006F754
:0F01070009A7F01922BBFE06F3E5F009F3192250
:10011600E88FF0A4CC8BF0A42CFCE98EF0A42CFC88
:100126008AF0EDA42CFCEA8EF0A4CDA8F08BF0A406
:100136002DCC3825F0FDE98FF0A42CCD35F0FCEB65
:100146008EF0A4FEA9F0EB8FF0A4CFC5F02ECD392A
:0F015600FEE43CFCEAA42DCE35F0FDE43CFC2297
:100D8300C2D5E830E70FB2D5E4C39BFBE49AFAE49B
:100D930099F9E498F8EC30E717B2D5120DB91202BD
:100DA30009E4C39BFBE49AFAE499F9E498F8800315
:100DB30012020930D50DE4C39FFFE49EFEE49DFDBE
:040DC300E49CFC228E
:10016500E8600FECC313FCED13FDEE13FEEF13FF78
:03017500D8F1229C
:10017800BC000BBE0029EF8DF084FFADF022E4CC6B
:10018800F875F008EF2FFFEE33FEEC33FCEE9DEC34
:10019800984005FCEE9DFE0FD5F0E9E4CEFD22ED7A
:1001A800F8F5F0EE8420D21CFEADF075F008EF2FC4
:1001B800FFED33FD4007985006D5F0F222C398FDB5
:0501C8000FD5F0EA2252
:1001CD0075F008758200EF2FFFEE33FECD33CDCCE9
:1001DD0033CCC58233C5829BED9AEC99E58298406C
:1001ED000CF582EE9BFEED9AFDEC99FC0FD5F0D649
:1001FD00E4CEFBE4CDFAE4CCF9A88222B800C1B973
:10020D000059BA002DEC8BF084CFCECDFCE5F0CBB0
:10021D00F97818EF2FFFEE33FEED33FDEC33FCEBE9
:10022D0033FB10D703994004EB99FB0FD8E5E4F9A4
:10023D00FA227818EF2FFFEE33FEED33FDEC33FC91
:10024D00C933C910D7059BE99A4007EC9BFCE99A85
:10025D00F90FD8E0E4C9FAE4CCFB2275F010EF2FCA
:10026D00FFEE33FEED33FDCC33CCC833C810D707CA
:10027D009BEC9AE899400AED9BFDEC9AFCE899F805
:0E028D000FD5F0DAE4CDFBE4CCFAE4C8F92298
:00000001FF
